:020000040800F2
:100000000000022065700008716F0008736F00081F
:10001000756F0008776F0008796F00080000000016
:1000200000000000000000000000000091BA00087D
:100030007B6F00080000000031BB000895BB000882
:10004000B5700008B5700008B5700008B5700008FC
:10005000B5700008B5700008B5700008B5700008EC
:10006000B5700008B5700008B5700008B5700008DC
:10007000B5700008B5700008B5700008B5700008CC
:10008000B5700008B5700008B5700008B5700008BC
:10009000B5700008B5700008B5700008B5700008AC
:1000A000B5700008B57000087D6F0008B5700008D5
:1000B000B5700008B5700008B5700008B57000088C
:1000C000B5700008B5700008B5700008B57000087C
:1000D000B5700008B5700008B5700008B57000086C
:1000E000B5700008B5700008B5700008B57000085C
:1000F000B5700008B5700008B5700008B57000084C
:10010000B5700008B5700008B5700008B57000083B
:10011000B5700008B5700008B5700008B57000082B
:10012000B5700008B5700008B5700008B57000081B
:10013000B57000088D6F0008B5700008B570000834
:10014000B5700008B5700008B57000089D6F000814
:10015000B5700008B5700008B5700008B5700008EB
:10016000B5700008B5700008B5700008B5700008DB
:10017000B5700008B5700008B570000800000000F8
:08018000B5700008B57000081D
:1001C000044B05481B1A062B02D9044B03B11847F0
:1001D000704700BF4F0A00204C0A002000000000BA
:1001E00005490648091A891001EBD171491002D05E
:1001F000034B03B1184770474C0A00204C0A0020FB
:100200000000000010B5064C237843B9FFF7D8FF73
:10021000044B13B10448AFF300800123237010BDD9
:100220004C0A002000000000CC65010808B5084B0E
:100230001BB108490848AFF300800848036813B9A8
:10024000BDE80840CCE7064B002BF9D09847F7E70C
:1002500000000000500A0020CC6501084C0A002074
:100260000000000053B94AB9002908BF00281CBF8C
:100270004FF0FF314FF0FF3000F07AB9ADF1080CCC
:100280006DE904CE00F006F8DDF804E0DDE90223B4
:1002900004B070472DE9F0478C460D460446089E91
:1002A000002B51D18A4217466DD9B2FA82FEBEF1B7
:1002B000000F0BD0CEF1200C01FA0EF520FA0CFC49
:1002C00002FA0EF74CEA050C00FA0EF44FEA174A50
:1002D000250CBCFBFAF81FFA87F90AFB18CC45EA93
:1002E0000C4508FB09F3AB420AD9ED1908F1FF32BE
:1002F00080F02381AB4240F22081A8F102083D4406
:10030000ED1AA4B2B5FBFAF00AFB105544EA054415
:1003100000FB09F9A14509D9E41900F1FF3380F088
:100320000A81A14540F2078102383C44A4EB09044C
:1003300040EA08400021002E61D024FA0EF4002388
:1003400034607360BDE8F0878B4207D9002E54D02B
:10035000002186E821000846BDE8F087B3FA83F162
:10036000002940F08E80AB4202D3824200F2FA8034
:10037000841A65EB03050120AC46002E3FD086E8C9
:100380001010BDE8F08712B90127B7FBF2F7B7FAF2
:1003900087FEBEF1000F34D1EB1B3A0C1FFA87FC2D
:1003A0000121B3FBF2F8250C02FB183345EA0345A3
:1003B0000CFB08F3AB4207D9ED1908F1FF3002D26C
:1003C000AB4200F2D1808046ED1AA3B2B5FBF2F049
:1003D00002FB105543EA05440CFB00FCA44507D979
:1003E000E41900F1FF3302D2A44500F2B8801846A8
:1003F000A4EB0C0440EA08409DE731463046BDE8D6
:10040000F087CEF1200405FA0EF307FA0EF720FA72
:1004100004F83A0C25FA04F448EA0308B4FBF2F1B4
:100420004FEA184502FB11441FFA87FC45EA0445D0
:1004300001FB0CF3AB4200FA0EF409D9ED1901F1FE
:10044000FF3080F08A80AB4240F2878002393D4421
:10045000EB1A1FFA88F5B3FBF2F002FB103345EA02
:10046000034500FB0CF3AB4207D9ED1900F1FF384F
:100470006FD2AB426DD902383D44EB1A40EA0141DC
:100480008FE7C1F1200722FA07F88B4005FA01F443
:1004900048EA030320FA07FE4FEA134CFD404EEAF8
:1004A000040EB5FBFCF94FEA1E440CFB19551FFA6C
:1004B00083F844EA054509FB08F4AC4202FA01F26C
:1004C00000FA01FA08D9ED1809F1FF3043D2AC4225
:1004D00041D9A9F102091D442D1B1FFA8EFEB5FB5F
:1004E000FCF00CFB10554EEA054400FB08F8A04553
:1004F00007D9E41800F1FF3529D2A04527D90238E1
:100500001C4440EA0940A4EB0804A0FB02894C45C6
:10051000C6464D4615D312D056B1BAEB0E0364EB66
:10052000050404FA07F7CB401F43CC4037607460E2
:100530000021BDE8F0871846F8E69046E0E6C2459F
:10054000EAD2B8EB020E69EB03050138E4E728466E
:10055000D7E7404691E78146BEE7014678E7023893
:100560003C4445E7084608E7A8F102083D442BE76C
:10057000704700BF002301461A46184602F068B8CB
:1005800038B50A4C0A4D641BA4100AD004F180430C
:10059000013B05EB8305013C55F804399847002CD5
:1005A000F9D1BDE8384016F017B800BF68900108CF
:1005B0006490010870B50F4E0F4D761BB61018BF32
:1005C000002405D0013455F8043B9847A642F9D1E0
:1005D0000A4E0B4D761B15F0F9FFB61018BF00241C
:1005E00006D0013455F8043B9847A642F9D170BDB6
:1005F00070BD00BF5C9001085C9001086490010828
:100600005C900108024B0146186800F00BB800BF6F
:1006100000000020024B0146186803F049BA00BFF1
:10062000000000202DE9F04F01F10B06162E83B0DB
:10063000054640F29E8036F0070600F1BD80B142CB
:1006400000F2BA8000F014FCB6F5FC7FC0F08F8297
:10065000730A00F0B880042B00F27D81B30903F126
:10066000390003F1380EC300C14F3B44A3F1080128
:100670005C68A14206D10CE0002A80F2AA80E468FE
:10068000A14206D0636823F003039A1B0F2AF3DD0F
:1006900070463C69DFF8DCE2744500F0A7816368CE
:1006A00023F003039A1B0F2A00F38C81002AC7F85A
:1006B00014E0C7F810E080F29D80B3F5007F80F071
:1006C0005D81DB0803F1010C99107A6857F83C80D2
:1006D000C4F8088001238B4007EBCC011343083991
:1006E000E1607B6047F83C40C8F80C408210012470
:1006F00094409C4200F28B801C4206D120F0030003
:1007000064001C4200F10400FAD007EBC009CC469B
:100710008046DCF80C309C4507D169E1002A80F264
:100720007781DB689C4500F06381596821F0030103
:100730008A1B0F2AF2DDD3F80CC0D3F8088001938E
:100740009C19284646F0010642F001055E60C8F893
:100750000CC0CCF808807C613C61C4F80CE0C4F8A3
:1007600008E065605A5000F085FB019B03F1080426
:100770001EE0102920D800F07BFB10261823022051
:100780007B4F3B44A3F108025C68944200F039813E
:100790006368E168A66823F00303234428465A6887
:1007A000F16042F001028E605A6000F063FB083491
:1007B000204603B0BDE8F08F00240C2320462B60B8
:1007C00003B0BDE8F08F40204FF400734FF03F0EB0
:1007D0004AE72344E1685A68A66842F00102F160E2
:1007E00028468E605A6000F045FB0834204603B06E
:1007F000BDE8F08F234428465A6842F001025A604F
:1008000000F038FB0834204603B0BDE8F08FBC6828
:10081000636823F00309B14504D3A9EB06030F2B4A
:1008200000F38980DFF850A1D7F80824DAF8003007
:10083000013204EB090B06EB030800F0508108F5C8
:10084000805808F10F0828F47F6828F00F08414607
:10085000284600F05FFB421C034600F0F68083450B
:1008600000F2F180DAF804204244CAF8042000F0D3
:100870004781D7F8081401311BBFA3EB0B0B5A4477
:10088000C7F80834CAF8042013F0070200F00D81FD
:10089000C2F10801C2F580520B4408329844C8F3F3
:1008A0000B08A2EB080841462846019300F032FBF2
:1008B000431C019B00F03E81C11A414441F00101FB
:1008C000DAF80420BB604244BC425960CAF80420F4
:1008D00016D0B9F10F0F40F2F4806168A9F10C0352
:1008E00023F00703E01801F001014FF0050E194352
:1008F0000F2B6160C0F804E0C0F808E000F212813C
:10090000DAF82C30BC689A42DAF8303088BFCAF87E
:100910002C209A4288BFCAF83020626822F0030275
:100920009642A2EB060301D80F2B04DC284600F008
:10093000A1FA00243CE7A21943F0010346F00106A6
:1009400066602846BA60536000F094FA0834204686
:1009500003B0BDE8F08F142B69D9542B00F29B80B3
:10096000330B03F16F0003F16E0EC3007CE600BF92
:100970003004002038040020680A00205A0A042AA3
:100980005BD9142A00F2AE8002F15C01C9005B322F
:1009900007EB010C7958ACF1080C8C4500F088800D
:1009A0004A6822F00302934273D289688C45F7D1DA
:1009B000DCF80C207B68E260C4F808C09460CCF8D6
:1009C0000C4093E6A11946F0010C42F00106C4F870
:1009D00004C0284679613961C1F80CE0C1F808E02B
:1009E0004E60E25000F046FA0834E1E67B687DE6AE
:1009F00008F1010818F0030F0CF1080C7FF489AE20
:100A00002DE0DC68A34208BF02303FF442AEBFE6EF
:100A100019441C464A68DB6854F8086F42F001022A
:100A20004A602846F3609E6000F024FAC0E603F1B5
:100A30005C0003F15B0EC30016E69A0902F139016E
:100A4000C9003832A4E7BC4254D0BC68626822F0C6
:100A5000030265E759F80839994540F0868010F09F
:100A6000030F00F1FF30F5D17B6823EA04037B60BC
:100A700064009C423FF6CBAE002C3FF4C8AE1C4253
:100A800040467FF442AE64001C4200F10400FAD0FC
:100A90003BE68C468CE7B3F5AA7F15D8F30B03F140
:100AA000780003F1770EC300DEE54FF48052F5E6DF
:100AB0007B689210012101FA02F213437B606246C7
:100AC00079E701225A6031E740F25452934223D829
:100AD000B30C03F17D0003F17C0EC300C4E508F103
:100AE0001008B4E6542A29D81A0B02F16F01C90084
:100AF0006E324DE7DAF804204244CAF80420B8E622
:100B0000CBF30B0100297FF4B4AE09EB0803B968FD
:100B100043F001034B60F3E67F204FF47E734FF008
:100B20007E0EA1E504F10801284602F0C1FFDAF8C3
:100B30000420E5E601214FF00008C1E6B2F5AA7FE6
:100B400005D8DA0B02F17801C900773220E740F2CC
:100B500054518A4205D89A0C02F17D01C9007C32B9
:100B600016E74FF47E717E2212E77B6880E7F0087B
:100B700006F1080304E600BF032A70B422D940EA54
:100B800001039B0711D003780C78A3421DD10A44BE
:100B9000013105E010F8013F11F8014BA34214D1D7
:100BA0009142F7D1002070BC70470D680668AE42D4
:100BB0000C46034601F1040100F1040008D1043A97
:100BC000032AF2D8002ADED1ECE7181B70BC70476C
:100BD00021461846D7E700BF844641EA000313F0D8
:100BE00003036DD1403A41D351F8043B40F8043B34
:100BF00051F8043B40F8043B51F8043B40F8043BF7
:100C000051F8043B40F8043B51F8043B40F8043BE6
:100C100051F8043B40F8043B51F8043B40F8043BD6
:100C200051F8043B40F8043B51F8043B40F8043BC6
:100C300051F8043B40F8043B51F8043B40F8043BB6
:100C400051F8043B40F8043B51F8043B40F8043BA6
:100C500051F8043B40F8043B51F8043B40F8043B96
:100C600051F8043B40F8043B403ABDD2303211D336
:100C700051F8043B40F8043B51F8043B40F8043B76
:100C800051F8043B40F8043B51F8043B40F8043B66
:100C9000103AEDD20C3205D351F8043B40F8043B36
:100CA000043AF9D2043208D0D2071CBF11F8013B34
:100CB00000F8013B01D30B8803806046704700BFFA
:100CC000082A13D38B078DD010F003038AD0C3F109
:100CD0000403D21ADB071CBF11F8013B00F8013BEB
:100CE00080D331F8023B20F8023B7BE7043AD9D3AA
:100CF000013A11F8013B00F8013BF9D20B7803707F
:100D00004B7843708B788370604670478842F0B5AB
:100D10000DD98B1898420AD28418002A51D0224645
:100D200013F8014D02F8014D9942F9D1F0BD0F2A97
:100D300048D941EA00039B0746D100F1100401F1B4
:100D40001003154653F8106C44F8106C53F80C6CF3
:100D500044F80C6C53F8086C44F8086C103D53F8D8
:100D6000046C44F8046C0F2D03F1100304F110041B
:100D7000E8D8A2F1100323F00F0302F00F0E103396
:100D8000BEF1030F1944034421D91E1F0D467446BA
:100D9000043C55F8047B46F8047F032CF8D8AEF1E8
:100DA000040424F0030404342144234402F0030225
:100DB00062B1013B0A4411F8014B03F8014F8A422A
:100DC000F9D1F0BD0346F3E70346F2E7F0BD724602
:100DD000EEE700BF70B4860746D0541E002A41D00B
:100DE000CAB2034602E014F1FF343BD303F8012BEF
:100DF0009D07F8D1032C2ED9CDB245EA05250F2C3D
:100E000045EA054519D903F110022646103E0F2E7A
:100E100042F8105C42F80C5C42F8085C42F8045C52
:100E200002F11002F2D8A4F1100222F00F0204F035
:100E30000F041032032C13440DD91E462246043AE7
:100E4000032A46F8045BFAD8221F22F00302043278
:100E5000134404F003042CB1C9B21C4403F8011B71
:100E60009C42FBD170BC704714460346C2E700BFEA
:100E7000704700BF704700BF0EB400B582B003AB2F
:100E8000816853F8042B019300F0CAF802B05DF8B2
:100E900004EB03B0704700BF0FB400B5074983B03F
:100EA00004AB086853F8042B8168019300F0B8F88C
:100EB00003B05DF804EB04B0704700BF00000020F1
:100EC000034B1B680022C3F8A800C3F8AC2070478E
:100ED0000000002010B40C4B0C4819680C4CD1F8E1
:100EE000A820D1F8AC3000FB02F004FB0300A2FB09
:100EF00004230344013243F10003C1E92A2323F010
:100F000000405DF8044B7047000000202DF451585C
:100F10002D7F954C38B5074C0023054608462360C5
:100F200006F06EF8431C00D038BD2368002BFBD0C0
:100F30002B6038BDC0BE0020000000000000000093
:100F400090F800F06DE9024520F007016FF0000C09
:100F500010F0070491F820F040F049804FF00004B1
:100F60006FF00700D1E9002391F840F000F108008C
:100F700082FA4CF2A4FA8CF283FA4CF3A2FA8CF3C4
:100F80004BBBD1E9022382FA4CF200F10800A4FA2B
:100F90008CF283FA4CF3A2FA8CF3E3B9D1E904237F
:100FA00082FA4CF200F10800A4FA8CF283FA4CF3B6
:100FB000A2FA8CF37BB9D1E9062301F1200182FA70
:100FC0004CF200F10800A4FA8CF283FA4CF3A2FA76
:100FD0008CF3002BC6D0002A04BF04301A4612BA84
:100FE000B2FA82F2FDE8024500EBD2007047D1E987
:100FF000002304F00305C4F100004FEAC50514F016
:10100000040F91F840F00CFA05F562EA05021CBFE6
:1010100063EA050362464FF00004A9E70000000000
:101020002DE9F04FBFB01D468A4691460446069012
:1010300002F0A4FE036812931846FFF781FF0A9599
:1010400010901CB1A36B002B00F02081BAF90C208A
:1010500093B298040AD4DAF8641042F4005321F4ED
:101060000051AAF80C30CAF864109BB2190740F17D
:10107000E480DAF81020002A00F0DF8003F01A0381
:101080000A2B00F0E8809FED847B00238DED0E7B22
:101090000D93239322931193139307932EAB2193D4
:1010A0009846CDF814A099F800304C46EBB1252BAA
:1010B00002D11AE0252B03D014F8013F002BF9D1FF
:1010C000A4EB09058DB1229B239AC8F80090013347
:1010D0002A44072BC8F804502392229300F3CB80B4
:1010E00008F10808079B2B4407932378002B00F096
:1010F000D58300231A468DF86730194608939B461E
:1011000066784FF0FF3304F10109049309F10109F6
:10111000A6F12003582B00F29883DFE813F09A021F
:1011200096039603910396039603960396039603FC
:1011300096037E038C0396038900B6029603A202EF
:10114000A702A702A702A702A702A702A702A70257
:10115000A7029603960396039603960396039603B7
:101160009603960396035502E2029603E202960363
:101170009603960396032B03960396036F0096033C
:1011800096039603960396035900960396037803F5
:101190009603960396039603960396039603960387
:1011A000960396035C037203E202E202E20230035A
:1011B0007203960396033503960342037100D1022E
:1011C00057039603C10096035B0096039603030240
:1011D0004BF0100B1BF0200F40F065860A9A1BF0B5
:1011E000100F134640F044831BF0400F00F0408383
:1011F00014880432002501230A92BAE14BF0100B47
:101200001BF0200340F05B861BF0100240F0368399
:101210001BF0400300F032830A9913460A46043259
:101220000C880A920025A4E108980A93404208908D
:101230004BF0040B99F8006068E75146069801F0FE
:10124000A3F9002840F03883BAF80C3003F01A03F1
:101250000A2B7FF418AFBAF90E30002BFFF613AF4C
:101260002B464A465146069801F058F907900798D0
:101270003FB0BDE8F08F21AA0599069803F0BEFCA7
:10128000002840F031840DF1B8082BE7069802F0F1
:101290009FFBDBE6AFF300800000000000000000D1
:1012A0000A9A176800248DF86740151D002F00F07A
:1012B000E787049A531C00F049872146384602F01C
:1012C000DFFD002801F04680C31B099304940A95B2
:1012D000CDF808B023EAE3739DF867A003930C945C
:1012E000BAF1000F02D0039B01330393029B13F06A
:1012F00002030B9302D0039B02330393029B13F070
:10130000840540F0C982089B039AA3EB020BBBF152
:10131000000F40F3C182BBF1100F2399229A28DD00
:1013200043461024A846DDF818A0059D06E0ABF161
:10133000100BBBF1100F03F1080318DD01329F48B9
:1013400022921031072A239183E81100EFDD21AAB0
:101350002946504603F052FC002840F01183ABF1BF
:10136000100BBBF1100F2399229A2EABE6DC4546F9
:1013700098460132914B22920BEB0104072A2394E9
:1013800088E8080800F373849DF867A008F108084E
:10139000BAF1000F0ED0229B013301340DF1670129
:1013A0000122072B2394229388E8060000F3B683DA
:1013B00008F108080B9B6BB1229B013302341AA978
:1013C0000222072B2394229388E8060000F3B183BE
:1013D00008F10808802D00F0E982049B099AA3EB2C
:1013E000020ABAF1000F3BDDBAF1100F229B744DD7
:1013F0002BDD42462146B0464FF0100B2E46069C90
:10140000059D06E0AAF1100ABAF1100F02F10802D8
:1014100017DD01331031072B2391229382E8400816
:10142000F0DD21AA2946204603F0E8FB002840F021
:10143000A782AAF1100ABAF1100F2399229B2EAAB3
:10144000E7DC35460C464646904601335444072BAC
:101450002394229388E8200400F3558308F10808B8
:10146000029BDB0500F12C82229B0999C8F80070D1
:1014700001330C44072B2394C8F80410229300F383
:10148000218308F10808029B5A073BD5089B039A61
:101490009D1A002D36DD102D229B21DD1026069F82
:1014A000DDF814A004E0103D102D08F1080817DD48
:1014B0000133424A22931034072B239488E84400D6
:1014C000F1DD21AA5146384603F098FB002840F090
:1014D000EE81103D102D239C229B0DF1B808E7DC16
:1014E0000133364A22932C44072B239488E82400A6
:1014F00008DD21AA0599069803F080FB002840F03A
:10150000F382239C079B089A03998A42ACBF9B18DD
:101510005B180793002C40F0DF82002322930DF12B
:10152000B808C0E5002A40F0E287264B11931BF073
:10153000200F40F0A0840A9A1BF0100F134640F0D1
:10154000D0831BF0400F00F0CC83043314880A933F
:1015500000251BF0010F00F01E8354EA050300F084
:101560001A8330238DF868308DF869604BF0020BD8
:1015700002234FF0000A8DF867A004994A1C48D056
:101580002BF08002029254EA050248D1002940F073
:10159000AE82002B40F067831BF00103099300F03B
:1015A0009A843EAF302307F8413D049B099A934249
:1015B000B8BF1346039300230C9391E6EC65010832
:1015C000FC6501081C900108002A40F07D874BF063
:1015D000100B1BF0200F40F059841BF0100F40F04F
:1015E0008F831BF0400F00F08B830A99B1F9004004
:1015F0000431E51722462B460A91002A73F10003B5
:10160000C0F2798404999DF867A04A1C4FF0010349
:10161000B6D154EA050200F06C82CDF808B0012B77
:1016200000F00483022B40F0938211982EAF23091F
:1016300004F00F0143EA05732A091C461546435C72
:1016400007F8013D54EA0503F1D12EABDB1B0993EA
:10165000ABE799F8006000297FF458AD0122202102
:1016600054E54BF0800B99F800604FE5A6F130038C
:10167000002019F8016B00EB800003EB4000A6F19D
:101680003003092BF5D9089042E599F800602A2E1D
:1016900009F1010000F00787A6F13003092B81460C
:1016A00098BF002000F2968619F8016B00EB8000CD
:1016B00003EB4000A6F13003092BF5D9049027E590
:1016C0000A9AB34B146811937826302304328DF8AC
:1016D00068304BF0020B0A9200258DF869600223F6
:1016E00047E7002A40F0FF860A9D1BF0080F05F12E
:1016F000070500F0858425F0070393ED007B8DED51
:101700000E7B03F108020A92DDE90E1222F000437B
:1017100014911593DDE914454FF0FF322046294618
:101720009C4B05F079FA002840F0EF834FF0FF3230
:10173000984B2046294605F051FA002840F0E583F1
:1017400000220023DDE90E0105F03EFA002840F0FA
:10175000BE859DF867A0904F904B032200212BF08F
:101760008000039204910290472ED8BF1F46099231
:101770000C91B5E54BF0080B99F80060C6E44BF00E
:10178000400B99F80060C1E499F800606C2E03BF2B
:1017900099F801604BF0200B09F101094BF0100B97
:1017A000B4E4002A40F097861BF0200F40F08584B7
:1017B0001BF0100F69D11BF0400F66D00A9A136816
:1017C00004320A92BDF81C201A806CE44BF0200B06
:1017D00099F800609AE40A99CDF808B00A688DF883
:1017E000902000230A469A468DF867300432012380
:1017F0000393CDF810A0CDF830A00A92099324AF3E
:1018000074E5002A3FF4E5AE8DF86710E1E6002AA2
:1018100040F06586624B119389E60A9C2368089321
:1018200018460028234603F10403FFF6FDAC0A9393
:1018300099F800606AE499F8006001222B2165E4C0
:101840004BF0010B99F8006060E4002A40F0388604
:1018500026B3002301229A4603928DF89060CDF8BA
:1018600008B08DF8673004930C93099224AF3DE5DE
:1018700004321C680A92012300257AE60A990A4676
:1018800004320C680A92002573E60A9A136804323F
:101890000A92079A1A6006E4239C79E5239BDDF8F7
:1018A00014A023B1069821AA514603F0A7F9BAF86B
:1018B0000C305B067FF5DBAC4FF0FF330793D6E4CB
:1018C000652E40F3B78000220023DDE90E0105F00C
:1018D00071F9002800F06181229B324AC8F800208B
:1018E000013301340122072B23942293C8F80420EA
:1018F00000F39E8308F108081B9B0D9A239C9342DA
:1019000003DB029BDE077FF5BEAD229B1099129A86
:10191000C8F8002001330C44072BC8F804102394A6
:10192000229300F3068408F108080D9B5E1E002E2A
:101930007FF7A9AD102E229B1B4D40F3D7811027B6
:10194000DDF818A0DDF814B005E008F10808103E35
:10195000102E40F3CB8101331034072B23942293B4
:1019600088E8A000F1DD21AA5946504603F046F967
:10197000002840F0DB83239C229B0DF1B808E6E7AA
:10198000AA46BAF80C305B067FF571AC94E700BF4D
:101990001C900108FFFFEF7FFC8F0108F88F010802
:1019A00008900108C87A0108FC650108089B039AA1
:1019B000A3EB020ABAF1000F7FF70FADBAF1100FD7
:1019C000229BB94D2ADD42462146B0464FF0100B0E
:1019D0002E46069C059D06E0AAF1100ABAF1100FEA
:1019E00002F1080216DD01331031072B23912293F7
:1019F00082E84008F0DD21AA2946204603F0FEF8DF
:101A00000028BDD1AAF1100ABAF1100F2399229B28
:101A10002EAAE8DC35460C4646469046013354442F
:101A2000072B2394229388E8200400F3578208F1BF
:101A30000808D2E40D9B229E012B40F3DB81013686
:101A400001340123072E23942296C8F80070C8F8A9
:101A5000043000F3EC8108F10808109A129BC8F8D2
:101A6000003001361444072E23942296C8F804202F
:101A700000F3F48108F1080800230022DDE90E01DB
:101A800005F098F80D9B002840F00081013B0136DD
:101A900001371C44072E22962394C8F80070C8F81A
:101AA000043000F3B78108F10808139AC8F804203D
:101AB000013614441DAB072E23942296C8F800303B
:101AC0007FF7DFAC21AA0599069803F097F858B97B
:101AD000239C0DF1B808D6E421AA0599069803F0D5
:101AE0008DF800283FF419ADDDF814A0DFE6DDF82D
:101AF00008B0012B00F00F81022B25D1CDF808B0E2
:101B00000024002591E521AA0599069803F076F8AE
:101B10000028E9D1239C0DF1B808A1E421AA059978
:101B2000069803F06BF80028DED1239C0DF1B8086D
:101B300040E421AA0599069803F060F80028D3D163
:101B4000239C0DF1B80845E4CDF808B00024002529
:101B50002EA900E03946E20842EA4572E80804F09E
:101B6000070305461446303354EA050201F8013CE8
:101B700001F1FF37EED1029AD2077FF566AD302B27
:101B80003FF463AD3023023907F8013C2EAB5B1AFA
:101B900009930F4609E50223EBE41B99002940F362
:101BA00055820C9B0D9A9342A8BF1346002B1E46EC
:101BB0000DDD229BC8F8007001333444072B2394B9
:101BC000C8F80460229300F3318308F108080C9BE5
:101BD000002EA8BF9B1B002B1E4640F3B080102E8A
:101BE000229B314D40F3188222464FF0100ADDF857
:101BF00018B0059C05E008F10808103E102E40F3CF
:101C00000A8201331032072B2392229388E82004A2
:101C1000F1DD21AA2146584602F0F0FF002840F0ED
:101C20005383239A229B0DF1B808E6E7002D08BFE5
:101C30000A2C6ED32EAF204629460A220023FEF737
:101C400011FB303207F8012D2046294600230A22D5
:101C5000FEF708FB04460D4654EA0503EBD12EAB14
:101C6000DB1B0993A1E4049B09932EAF9DE421AAF9
:101C70000599069802F0C2FF00287FF435AF9DF861
:101C800067A0239C0DF1B808FFF782BB5F1E002FF1
:101C90007FF70BAF102F044D40F3D6804FF0100AA2
:101CA000DDF818B008E000BFFC65010808F108087D
:101CB000103F102F40F3C88001361034072E2394B4
:101CC000229688E82004F1DD21AA0599584602F001
:101CD00095FF00287FF408AF239C229E0DF1B808E1
:101CE000E6E71C6804330A93002532E401333444E8
:101CF000072B2394229388E860007FF7C2ABE1E6CC
:101D00000A9A146813460433E5170A9322462B46B1
:101D100073E4DDF808B0CDF808B03EAF30340123ED
:101D200007F8414D099340E421AA0599069802F06D
:101D300065FF00287FF4D8AE239C0DF1B8081B9BEB
:101D40000D9A934245DB029AD00742D40D9A0C9922
:101D5000D31A561A9E42A8BF1E46002E0EDD229AA6
:101D6000C8F8046001320F443444072AC8F80070F0
:101D70002394229200F3758208F10808002EACBF6C
:101D80009E1B1E46002E7FF77EAB102E229BAE4D73
:101D9000ACDD1027DDF818A0DDF814B004E008F180
:101DA0000808103E102EA1DD01331034072B2394B8
:101DB000229388E8A000F2DD21AA5946504602F09D
:101DC0001DFF002840F0B281239C229B0DF1B80832
:101DD000E7E7229A10981299C8F8001001320444DB
:101DE000072A2394C8F80400229200F32D8208F1F8
:101DF0000808ABE7029BD9073FF521AE0136013455
:101E00000123072E23942296C8F80070C8F80430E6
:101E10007FF749AE21AA0599069802F0EFFE002847
:101E20007FF462AE239C229E0DF1B8083DE621AA04
:101E30000599069802F0E2FE00287FF455AE239C37
:101E4000229E0DF1B80808E601363C44072E239483
:101E5000229688E8A0007FF726AEDBE721AA059945
:101E6000069802F0CBFE00287FF43EAE239C229E13
:101E70000DF1B80800E60A9D073525F0070303F1C8
:101E800008020A92D3E90045FFF763BB0A9D0735B4
:101E900025F00705D5E9002305F108010A9114464C
:101EA0001D46FFF7AABB0A9D073525F0070303F17E
:101EB0000802D3E900450A920123FFF75ABB0A9DA5
:101EC000073525F0070303F10802D3E900450A921C
:101ED0000023FFF74EBB2EAFFFF767BB21AA059982
:101EE000069802F08BFE00287FF4FEAD239C0DF1D6
:101EF000B808FFF772BA4FF02D0A644265EB45054A
:101F00008DF867A00123FFF738BBDDE90E0102461B
:101F10000B4604F081FE002840F08B82049B0133C5
:101F200026F0200A00F0BB81BAF1470F00F0F880DC
:101F30000F9B4BF48072002B0292C0F2CE819DED7C
:101F40000E7B8DED167B00230B93662E00F0AA818D
:101F5000462E00F0BE80BAF1450F0CBF049B049DD5
:101F6000069808BF5D1C1FAA1CAB019200932A466D
:101F70001BAB02219DED160B00F052FC672E0746AD
:101F800040F0C8811BF0010F00F040827C19002254
:101F90000023DDE9160104F00DFE002840F0528117
:101FA0001F9BA34206D230215A1C1F9219701F9BFF
:101FB0009C42F9D8DB1BBAF1470F0D9300F0D98092
:101FC000652E40F3B6811B9B0C93662E00F0B48106
:101FD0000D9B0C9A1946914200F388811BF0010F6A
:101FE00040F01E8222EAE2730393099267260B9B5C
:101FF000002B40F0B68004939DF867A0FFF770B9FE
:1020000025F0070595ED007B05F108038DED0E7BAE
:102010000A93FFF779BB144601333444072B23940A
:10202000229388E860003FF77FAE08F1080886E653
:1020300021AA0599069802F0E1FD00287FF454AD2D
:102040000DF1B80858E400BFFC650108229BAE4AB8
:10205000C8F80020013301340122072B2394229376
:10206000C8F804204FDC08F1080829B90D9B1BB9FA
:10207000029BDD077FF507AA229B1098129AC8F8E9
:102080000020013302462244072B2392C8F80400A3
:10209000229300F3918108F108080029C0F26681BB
:1020A0000D99C8F8007001338C18072B23942293E4
:1020B000C8F804107FF7E5A904E50A9A07991368A0
:1020C000CD170846043229460A92C3E90001FEF7FB
:1020D000EABF049D06981FAA1CAB019200932A46F2
:1020E0001BAB03219DED160B00F09AFB0746462E15
:1020F00007EB05047FF44BAF3B78302B00F09F815A
:102100001B9D2C4443E721AA0599069802F076FD11
:1021100000287FF4E9AC1B99239C0DF1B808A4E7D3
:10212000049B002B08BF0123049301E7DA46FFF765
:10213000BEBB21AA0599069802F060FD00287FF435
:10214000D3AC239C0DF1B808FFF7EFBB38460494DD
:10215000FEF7F6FE0A950990CDF808B00346FFF7A2
:10216000B9B84FF02D0A00238DF867A00493FFF74C
:10217000BAB81B9B0C931A46033304DB049B194625
:102180009142BFF625AF023E0C9B8DF87460013B77
:10219000002B1B93BDBF0C9BC3F101032D222B22EF
:1021A000092B8DF8752040F333810DF1830420460F
:1021B000564D00E0104685FB0312D917C1EBA20172
:1021C00001EB8102A3EB42023032092900F8012C15
:1021D0000B4600F1FF32EDDC30330238D9B28442D5
:1021E00002F8011C40F274810DF17600134601E003
:1021F00013F8011B00F8011BA342F9D101339B1A0C
:102200000DF1760213441DAA9B1A0D9A1393012A0D
:102210001344099340F33381099B109A13440993A3
:1022200023EAE373039300230C93E0E621AA0599C4
:10223000069802F0E3FC00287FF456AC239C0DF1D5
:10224000B808C4E42346B5E621AA0599069802F029
:10225000D5FC00287FF448AC1B9B239C0DF1B808EB
:1022600074E521AA0599069802F0C8FC00287FF4BD
:102270003BAC1B9B0D9A239CD31A0DF1B8087DE54E
:10228000049B0C97062B28BF06230497BA4603939A
:102290000A95CDF808B009931D4FFFF721B8062322
:1022A000049345E6049C06981FAA1CAB0192009378
:1022B00022461BAB03219DED160B00F0B1FA23461D
:1022C000074604191D4617E7A246FFF7F0BA4FF07C
:1022D0002D0A8DF867A0FFF73EBADDE90E1202F174
:1022E000004317932D2316910B932EE6109A0D9B06
:1022F00013440C9A0993002A40F3B98023EAE3734C
:102300000393672673E600BFC87A010867666666AE
:1023100030900108472E7FF439AE1BF0010F7FF497
:10232000E6AE1F9BBAF1470FA3EB07030D933FF4F3
:1023300020AF1B9B0C9327E7002B40F3AA80049A45
:10234000002A40F08A801BF0010F40F08680039342
:1023500009934CE6049B0393099304900A95CDF8E6
:1023600008B00C909DF867A0FEF7BABF4E4210313E
:10237000614D33DA1024DDF818A0DDF814B004E064
:1023800008F10808103E102E28DD01331032072B0B
:1023900023922293C8F80050C8F80440F0DD21AA27
:1023A0005946504602F02AFC00287FF4BFAE239A1B
:1023B000229B0DF1B808E5E721AA0599069802F0DD
:1023C0001DFC00287FF490AB1B99239A229B0DF1F2
:1023D000B80862E600230493FEF79ABE0133324444
:1023E000072B88E860002392229308F108087FF702
:1023F00057AE21AA0599069802F000FC00287FF448
:1024000073AB239A229B0DF1B80849E61F9BD1E5D7
:10241000303330228DF877308DF876201EABF2E61F
:102420000C9B109A1344099323EAE37303936726E2
:10243000DDE5324F324B9DF867A0FFF78EB90022E1
:102440000023DDE9160104F0B5FB00287FF458AE47
:10245000C5F101051B952C4499E50C9B109A13447A
:10246000049A1A4422EAE27309920393BFE50C9B93
:10247000099AC3F101031A44134609923EE71BF07F
:1024800001030C937FF4C8AE099B23EAE373039323
:10249000ADE5049B13B91BF0010F02D0109B013373
:1024A000DEE7012353E70A9C99F80160236843EAB9
:1024B000E37304932346043381460A93FEF726BE52
:1024C0008DF86710FFF7C4B98DF86710FFF77FB874
:1024D0000DF1760397E68DF86710FFF765B98DF873
:1024E0006710FFF797B98DF86710FFF7FDB88DF803
:1024F0006710FFF71AB800BFFC65010804900108D7
:102500000090010810B4044C13460A4601462068A6
:102510005DF8044BFEF784BD00000020F0B50C46CA
:10252000ADF26C4D8989666EE589199621F002013C
:10253000666AADF80E500025E769ADF80C100996F3
:1025400006951AAE4FF4806569460096049602958A
:10255000059507970646FEF763FD051E07DB304627
:10256000694601F023F9002818BF4FF0FF35BDF888
:102570000C305B0603D5A38943F04003A3812846B2
:102580000DF26C4DF0BD00BF38B5304B1B680546F1
:102590000C4613B19A6B002A38D0B4F90C2093B2D0
:1025A00018070CD52069A8B113F001021ED0636989
:1025B00000225B42A361A260F0B1002038BDD906C1
:1025C0003CD5580726D4206942F00803A3819BB26A
:1025D0000028E9D103F42072B2F5007FE4D0284648
:1025E000214601F009FCA3892069DDE7990758BF5E
:1025F0006269A2600028E0D1B4F90C301A06DDD57A
:1026000043F04003A3814FF0FF3038BD184601F07E
:10261000DFF9C2E7216B51B104F14003994204D0C4
:10262000284601F045FAB4F90C2000232363002367
:102630002069636022F024022060C5E742F0400276
:1026400009232B604FF0FF30A28138BD000000202D
:102650002DE9F047254C2568D5F8484106468846BF
:1026600092469946C4B360681F2817DC431C76B1B4
:1026700004EB80050122C5F888A0D4F888118240B7
:102680001143022EC4F88811C5F808911ED00230FB
:10269000636044F820800020BDE8F087144B03B34A
:1026A0004FF4C870FDF7AEFF0446D0B1D5F84831FD
:1026B000002780E88800C5F8484138460123C4F85F
:1026C0008871C4F88C71002EE1D0D1E7D4F88C1158
:1026D0000A43C4F88C21DAE705F5A674C5F8484129
:1026E000C1E74FF0FF30BDE8F08700BFE8650108A3
:1026F000050600080000000002690B69934200F320
:102700008D802DE9F04F03F1FF3801F1140700F13E
:10271000140B57F828205BF828304FEA880483B060
:102720000132B3FBF2F90BEB0403009407EB040A4C
:102730000193B9F1000F39D000252E46BC46DE4684
:102740005CF8044BDEF80030A2B209FB0255220C03
:102750002C0C09FB0242ADB2751B96B2C6EB1346B8
:1027600015FA83F306EB23469BB243EA0643E245A0
:102770004FEA12454EF8043B4FEA2646E0D2009B52
:102780005BF8033093B9019C231F9B450CD254F88E
:10279000043C4BB9A4F1080302E01A68043B1AB9DF
:1027A0009B4508F1FF38F8D3C0F81080044601F0CB
:1027B00003FE00282EDB09F101095D46002357F8CE
:1027C000041B28688AB29A1A0B0C12FA80F2C3EB27
:1027D000104303EB224392B242EA0342BA4545F862
:1027E000042B4FEA2343EAD25BF828200BEB880343
:1027F00082B91A1F93450BD253F8042C42B9083BF7
:1028000002E01A68043B1AB99B4508F1FF38F8D377
:10281000C4F81080484603B0BDE8F08F0020704730
:102820002DE9F04F57EC106B97B0056C0291044600
:1028300093460393CDE900674DB1426C6A60012372
:102840009340AB60294601F091FB00232364DDE94E
:102850000023002B994638DB209A00231360A04BFD
:1028600033EA090317D0DDE9006700220023304670
:10287000394604F09FF9804600282FD0039A01239F
:102880001360219B002B00F0C4809648186001382B
:1028900017B0BDE8F08F039A42F20F731360009BEC
:1028A0006BB9C9F3130353B9219B8F48002BEFD0A9
:1028B00000F10803219A136017B0BDE8F08F219B47
:1028C0008A48002BE4D0C31CF4E7019A22F00049A7
:1028D000209ACDF8049001231360C0E714AA15A92B
:1028E00047EC106B204601F093FE5FEA19558246D3
:1028F00073D0C7F3130343F07F51CDF84080DDF868
:1029000050803046A5F2FF3541F440110022784B4B
:1029100003F034FD6CA3D3E9002303F0E3FE6CA3C2
:10292000D3E9002303F02CFD064628460F4603F0AA
:1029300073FE69A3D3E9002303F0D4FE02460B46DD
:102940003046394603F01CFD06460F4604F07AF97E
:102950000022049000233046394604F035F900285F
:1029600040F06F81049E162E00F25981614B03EBFB
:10297000C603D3E90001DDE9002304F043F9002890
:1029800000F0C481731E049300230C93A8EB05058B
:102990006B1E059300F14F8100230693049B002BCF
:1029A000C0F24081059A0B9311461944002305910A
:1029B0000A93029B092B2ED8052B40F35186043B2A
:1029C00002930027029B023B032B00F23386DFE8D1
:1029D00013F0D603CB02E3036404DDF85080159DA9
:1029E000454405F23243202B40F38A81C3F1400372
:1029F00009FA03F9009B05F2124023FA00F040EABD
:102A0000090003F0F9FD0123013DA1F1F8711093D4
:102A10007CE739483CE70021616420468B4601F0A1
:102A20007FFA4FF0FF3308930D9301230790206442
:102A3000CDF808B00993159B002BC0F2D080049A02
:102A40000E2A00F3CC802B4BBBF1000F03EBC2032B
:102A5000D3E90089C0F2BE83DDE9006742464B46F8
:102A60003046394603F068FF04F0ECF8834603F083
:102A7000D3FD42464B4603F035FE0B46024639462F
:102A8000304603F07BFC079D0BF130032B70089B55
:102A9000012B06460F4605F1010561D00022174BB8
:102AA00003F020FE0022002306460F4604F082F8C1
:102AB000002840F08180CDF800A00294DDF81CA031
:102AC000089C28E0AFF3008061436F63A787D23F83
:102AD000B3C8608B288AC63FFB799F501344D33F0D
:102AE0000000F07FC97A010838900108449001087D
:102AF0000000F83F20660108C87A01080000244061
:102B000003F0F0FD0022002306460F4604F052F8C1
:102B1000002840F0C58342464B463046394603F014
:102B20000BFF04F08FF8834603F076FD42464B46D8
:102B300003F0D8FD02460B463046394603F01EFC32
:102B40000BF1300E05F801EBA5EB0A0EA645064683
:102B50000F464FF000026E4BD2D1DDF800A0029C70
:102B600032463B463046394603F00AFC06460F46DD
:102B700002460B464046494604F026F848B932461C
:102B80003B464046494604F015F8A8B11BF0010F3A
:102B900012D015F8018C079A6B1E04E09A4200F0DF
:102BA0002D8413F8018DB8F1390F03F10105F5D02B
:102BB00008F1010883F800805146204601F0D6F95B
:102BC0000022049B2A70039A01331360219B002B7F
:102BD00000F0A38307981D6017B0BDE8F08F099A35
:102BE000002A40D0029A012A40F31C83089B0A9ACB
:102BF0005F1EBA42C0F29483D71B089B002BC0F221
:102C00007E84069D089B069A1A440692059A012125
:102C10001A442046059201F091FA064626E0012367
:102C20000C93B3E6069A049BD21A5B420A930023E4
:102C300006920B93BDE6C5F10103069300230593AD
:102C4000ACE6DDF81090484603F0E6FC02460B4681
:102C50003046394603F0AEFF00287FF483AE09F119
:102C6000FF3304937EE60A9F069D099E002D0CDD2E
:102C7000059900290B4608DDA942069AA8BF2B46F4
:102C8000D21AED1ACB1A069205930A9BD3B1099B6F
:102C9000002B00F0C082002F10DD31463A4620465E
:102CA00001F0E8FA524601460646204601F050FA85
:102CB00051468046204601F059F9C2460A9BDA1B6C
:102CC00040F0AA820121204601F038FA0B9B002B2C
:102CD00081461FDD01461A46204601F0CBFA029BD1
:102CE000012B814640F35B824FF00008D9F8103089
:102CF00009EB8303186901F0D1F9C0F1200013E05A
:102D0000C3F12009009B03FA09F07AE60C903DE636
:102D100000002440029B012B40F38D824FF00008FD
:102D20000B9B0120002BE1D1059A104410F01F00ED
:102D300000F0A180C0F12003042B40F38C84069B9B
:102D4000C0F11C0003440693134603440544059355
:102D5000069B002B05DD51461A46204601F0DAFAA3
:102D60008246059B002B05DD49461A46204601F0A8
:102D7000D1FA81460C9B002B40F08680089B002BEB
:102D800040F36982099B002B00F09880002D05DD3F
:102D900031462A46204601F0BDFA0646B8F1000F3A
:102DA00040F03683B046089B079A013BD31808933E
:102DB000009B03F001030993174649465046FFF76D
:102DC0009BFC31460546504601F0F6FA424649461C
:102DD0008346204601F00CFB05F130020092C268E8
:102DE0000146002A40F032820690504601F0E4FA93
:102DF000069B05901946204601F0B8F8059A32B9AD
:102E0000029B23B9099B002B00F0DE83029ABBF1E1
:102E1000000FC0F2A28205D1029B1BB9099B002BB7
:102E200000F09B82002A00F307839DF800303B707E
:102E3000089B07F1010B9F425D4600F00883514655
:102E400000230A22204601F09BF84645824631467F
:102E50004FF000034FF00A02204600F0F18101F02C
:102E60008FF84146064600230A22204601F088F8E2
:102E70005F468046A1E71C20069B03440693059B02
:102E800003440544059363E74946504601F094FA2C
:102E90000028BFF673AF049F514600230A22204644
:102EA000013F049701F06CF8099B8246002B40F02B
:102EB000A7830D9B002B40F3B0830893DDF81CB073
:102EC000DDF820805D4602E001F05AF8824649466E
:102ED0005046FFF711FC00F1300705F8017BA5EB28
:102EE0000B0343454FF00A024FF0000351462046C2
:102EF000EADB079B089A0097012AACBF9B180133B5
:102F00001D464FF0000B51460122204601F002FA07
:102F10004946824601F050FA002840F33A8215F8FB
:102F2000012C07996B1E04E08B4200F0AF8113F86F
:102F3000012D392A03F10105F6D001321A704946F4
:102F4000204601F013F8002E3FF436AEBBF1000F1F
:102F500005D0B34503D05946204601F007F8314665
:102F6000204601F003F827E600230993049B5B4405
:102F70000D930133012B1E461D460893B8BF012651
:102F80000021172E61640AD9012204235B0003F19A
:102F900014008642114602F10102F7D26164204614
:102FA00000F0BEFF0E2D079020643FF644AD002FC9
:102FB0003FF441AD049900299DED007B40F3F6817B
:102FC000B94B01F00F0203EBC2030D11D3E9006707
:102FD000EB0640F1AD81B54B51EC170BD3E908235B
:102FE00003F0AAFCCDE90E0105F00F054FF003092F
:102FF0008DB1DFF8B882E80709D530463946D8E9FF
:10300000002303F06FFB09F1010906460F466D101E
:1030100008F10808EFD13B463246DDE90E0103F026
:103020008BFC074688460C9B43B10022A04B3846D8
:10303000414603F0C9FD002840F07382484603F082
:10304000EBFA3A46434603F04DFB9A4B002203F05D
:1030500097F9089B0546A1F15076002B00F04081BE
:10306000049BDDF820901193099B002B00F0F68162
:103070008D4B914903EBC90353E90223002003F070
:103080005BFC2A46334603F079F9CDE90E0141464F
:10309000384603F0D7FD054603F0BEFA02460B465C
:1030A0003846414603F06AF930355FFA85F8079DE6
:1030B00006460F4685F8008002460B46DDE90E0104
:1030C000013503F09FFD002856D132463B460020D3
:1030D000774903F053F902460B46DDE90E0103F090
:1030E00091FD002840F06282B9F1010F3FF4A3ACDA
:1030F000079BCDF848A0CDF84CB09944A046DDE937
:103100000EAB0DE000206A4903F038F952465B46E9
:1031100003F05AFD002840F044824D4500F04A82F9
:10312000504659460022654B03F0DCFA0022634BFF
:1031300082468B463046394603F0D4FA0F4606469F
:1031400003F080FD044603F067FA02460B46304662
:10315000394603F013F93034E4B252465B4605F8C1
:10316000014B06460F4603F02FFD32463B46002832
:10317000C8D0DDF848A04446119B04931CE5002309
:103180000993BBF1000F40F3DA805E465D46CDF84F
:1031900034B0CDF820B0F3E601230993F1E7009BAA
:1031A000002B7FF4A1ADDDE90012C2F31303002B65
:1031B0007FF4B4AD22F000473F0D3F05002F00F033
:1031C0000082069B01330693059B013305934FF064
:1031D0000108A5E5089B002B3FF73EAC40F0998025
:1031E00049460022364B404603F07CFADDE90023D5
:1031F00003F0FEFCDDF820904E4600283ED06FEA3A
:103200000B03079D04934946204600F0AFFE002EB5
:103210003FF4D2ACA3E60A9A5146204601F02AF8C0
:1032200082464FE5109A002A00F06F8103F2334383
:103230000A9F069DE7E4009B002B7FF46FADB2E789
:1032400000F09EFE5F4606468046B6E5204600F04A
:103250008DFE0122DBE5029B022B7FF793AD089BDD
:10326000002BCCD149460522204600F089FE0146BC
:103270008146504601F0A0F80028C0DD049A079965
:103280003123013204920B704D1CBCE7049A0132C9
:103290000492079A3123137051E60123099365E6DE
:1032A000DDF800A0029C87E4206601081067010891
:1032B0000000F03F00001C400000E03F0000244000
:1032C00000001440484603F0A7F93A46434603F08D
:1032D00009FA0022C44B03F053F80546A1F15076D9
:1032E00041460022C14B384603F048F82A4633468F
:1032F0008046894603F086FC002840F0AB802A46D1
:1033000006F100434046494603F05EFC00283FF4C6
:1033100092AB4FF000094E4671E70798FFF7B8BA35
:103320000A9B0B9A0A97FB1A1A440B92002764E433
:103330009DED007B4FF002098DED0E7B58E60021DC
:103340006164204600F0ECFD4FF0010B0790206413
:10335000CDF820B0CDF834B029E6002A12DD514670
:103360000122204600F0D6FF4946824601F024F8AB
:10337000002840F33181009B392B00F0F78005F1E4
:10338000310300939DF800303B70B3467D1C4646E8
:10339000D5E504D1009BDB0701D5C0E5154615F83E
:1033A000013C302B05F1FF32F8D0C8E500F0B480C5
:1033B000049B5D428E4B05F00F0203EBC203D3E981
:1033C0000023DDE9000103F08DF92D110746884641
:1033D00000F02881874E4FF00209E90709D53846E9
:1033E0004146D6E9002303F07DF909F101090746BA
:1033F00088466D1006F10806EFD114E607993022D1
:103400000A70049A15F8018C01320492FFF7D0BBC0
:103410007168204600F084FD336902339A00054646
:1034200006F10C010C30FDF7D7FB2946012220469E
:1034300000F070FF8046B6E4009B392B00F09680C8
:10344000009B0133B3463B707D1C464677E5B3468F
:10345000464658E54FF000094E460FE7644901EB38
:10346000C9012A46334651E9020103F03BF9CDE98F
:103470000E013846414603F0E5FB054603F0CCF863
:1034800002460B463846414602F078FF079A30352F
:10349000B9F1010F157006460F4602F101051CD067
:1034A000079B99440022544B3046394603F01AF9E1
:1034B0000F46064603F0C6FB804603F0ADF808F160
:1034C000300802460B463046394602F057FF05F8F1
:1034D000018B4D4506460F46E4D10022474BDDE9FE
:1034E0000E0102F04DFF32463B4603F06DFB002813
:1034F00042D0119B049315F8018CFFF74CBB069B3F
:10350000089A9D1A0023FFF77EBB149B0A9F069D15
:10351000C3F13603FFF777BBDDE900784FF002090E
:1035200081E5089B002B3FF4CDAE0D9B002B7FF770
:1035300082AA0022304B3846414603F0D3F80746B2
:10354000884609F1010003F067F83A46434603F064
:10355000C9F80022244B02F013FF049ADDF83490DE
:10356000013A0546A1F1507611927DE53922B34624
:103570003A7046467D1CD4E4DDE90E2300201F4945
:1035800002F0FCFE32463B4603F03CFB10B9FFF76D
:1035900052BA154615F8013C302B05F1FF32F8D030
:1035A000EAE54346DDF848A0A0461C46119B04937B
:1035B000FFF7F1BADDF848A0DDF84CB04446FFF75C
:1035C0003ABAB846FFF7ACBB009B392BCED0BBF163
:1035D000000F3FF7D4AED5E67FF4D4AE009BDA07F8
:1035E0007FF5D0AEC7E600BF00001C4000001440CD
:1035F0002066010810670108000024400000E03F39
:10360000314600230A22204600F0BAFC0D9B002B15
:1036100006460ADD0893FFF7B9BB029B022B22DCAA
:103620000D9B4AE44FF00209FDE4029B022B1ADCD9
:103630000D9BEFE7002565642946204600F070FCED
:103640004FF0FF3308930D9301230790AB4620649E
:103650000993FFF7F0B93FF47BABC0F13C000BE4FA
:103660000127FFF7AFB90D9B0893F8E5B1F90C30CE
:103670009AB22DE9F0410D46110780463AD46A68A6
:1036800043F40063002AAB816FDDAC6A002C49D0A3
:1036900000229BB2D8F80060C8F8002013F48052D2
:1036A00067D02A6D5F0705D569682B6B521A0BB17D
:1036B000EB6BD21A0023E9694046A047441C3CD07A
:1036C000B5F90C302A692A6023F400630022AB812B
:1036D000DB046A6047D4296BC8F8006011B305F1B8
:1036E0004003994202D0404600F0E2F900202863EE
:1036F000BDE8F0812E69AEB12C682E6091070CBF39
:103700006B690023A41BAB600AE0234632466F6A54
:10371000E9694046B8470028A4EB0004064404DDEC
:10372000002CF2DC0020BDE8F081AB8943F04003BF
:10373000AB814FF0FF30BDE8F081D8F800401D2C80
:10374000F3D8194BE340DB4313F00103EDD1B5F996
:103750000C206B6022F400632969AB81DA042960D4
:10376000B9D5002CB7D12865B5E7EA6B002A8CDC07
:10377000D8E70123E9694046A047431C024602D02E
:10378000AB89AC6A8EE7D8F80030002BF8D01D2B3F
:1037900001D0162B02D1C8F80060C3E7AB8943F013
:1037A0004003AB81BDE8F0810100402010B5044624
:1037B00082B008B1836B53B1B1F90C0008B902B003
:1037C00010BD204602B0BDE81040FFF74FBF019189
:1037D00000F0FEF80199EFE720B1054B01461868AB
:1037E000FFF7E4BF034B0449186800F06DBA00BF4F
:1037F00000000020E8650108AD3700080020704790
:10380000014900F061BA00BF455900082DE9F04FA9
:10381000354B4568C3630024074600F53B7204231B
:103820000321C0F8E412C0F8E822C0F8E04283B0F7
:103830002C606C60AC606C66EC812C616C61AC617E
:10384000AB81214605F15C000822FDF7C3FABE6892
:10385000DFF898B0DFF898A0DFF89890DFF898804C
:10386000C5F820B001230922C5F824A0C5F8289086
:10387000C5F82C80ED612146F381B28106F15C0030
:1038800034607460B460746634617461B461082239
:103890000193FDF79FFAFD68F66112200222C6F837
:1038A00020B0C6F824A0C6F82890C6F82C8021467F
:1038B000A881EA812C606C60AC606C662C616C61E4
:1038C000AC6105F15C000822FDF784FA019BED6113
:1038D000C5F820B0C5F824A0C5F82890C5F82C80FC
:1038E000BB6303B0BDE8F08F01380008154800083D
:1038F0003D480008794800089948000800207047B2
:1039000070B54A1E682505FB02F50E4605F17401E7
:10391000FCF788FE044640B100210C30666005F1DA
:1039200068022160A060FDF755FA204670BD00BF17
:10393000214B70B51D68AB6B0646002B2CD005F5EE
:1039400038756B68AC68013B05D521E0013B5A1C1A
:1039500004F168041CD0B4F90C20002AF6D100252B
:103960004FF6FF720123E281A38165662560A560A1
:10397000656025616561A5612946082204F15C0046
:10398000FDF728FA256365636564A564204670BD6C
:10399000286828B10546D4E72846FFF737FFCEE769
:1039A00004213046FFF7ACFF28600028F2D10C2339
:1039B00004463360EAE700BFE8650108024B0349AB
:1039C000186800F081B900BFE86501084559000892
:1039D000836B03B1704719E7704700BF704700BFA2
:1039E000704700BF704700BF024B0349186800F0E2
:1039F00045B900BF00000020FD380008024B034914
:103A0000186800F03BB900BF00000020FD37000837
:103A1000F8B5244F0C460646FDF72AFABB685D68E8
:103A2000C4F57E610F3125F00305294421F47F613F
:103A300021F00F01A1F58054B4F5805F07DB002170
:103A40003046FDF767FABB682B44984204D03046F5
:103A5000FDF710FA0020F8BD61423046FDF75AFA32
:103A600001300DD0104BBA6819682D1B45F00105C7
:103A70003046091B55601960FDF7FCF90120F8BDBF
:103A800000213046FDF746FABA68831A0F2BDEDDB7
:103A9000064C0549246843F00103001B536008608D
:103AA000D5E700BF300400206C0A00203808002051
:103AB000002944D02DE9F0410D468046FDF7D8F9A4
:103AC00055F8047C694927F00103A5F10804E218C0
:103AD0008E685068B24220F003005ED0FE0750604E
:103AE0000BD455F8087CE41B01F1080EA568754558
:103AF0003B446DD0E768EF60BD6015186D68ED0759
:103B00003ED543F001026260E350B3F5007F17D267
:103B1000DB08581C9A104D6851F83070A7600123DB
:103B2000934001EBC0022B43083AE2604B6041F83E
:103B30003040FC604046BDE8F041FDF79BB970475E
:103B40005A0A042A52D89A0902F13907FF0002F1F1
:103B50003805C819CA59083890424FD0516821F029
:103B600003018B4232D292689042F7D1C368A060C1
:103B7000E3609C60C4604046BDE8F041FDF77AB95F
:103B800095683B4FBD42034440D0D068E86043F0A5
:103B9000010285606260E350B7E7FF07034407D482
:103BA00055F8082CA41A1344A068E268C26090601B
:103BB000304A126843F00100934260608C60B9D3D0
:103BC0002D4B40461968FFF723FFB3E71046CDE7BA
:103BD00011184968C90744D49168D268CA6003447F
:103BE00043F0010091606060E350A3E7142A16D807
:103BF00002F15C07FF0002F15B05AAE7AA100123AE
:103C00004D6893402B434B600346B0E743F00102FD
:103C10004C610C61E560A5606260E3508AE7542A5C
:103C200006D81A0B02F16F07FF0002F16E0590E74C
:103C3000B2F5AA7F06D8DA0B02F17807FF0002F18D
:103C4000770586E740F25450824206D89A0C02F17A
:103C50007D07FF0002F17C057BE74FF47E777E2530
:103C600077E743F001016160136063E730040020EF
:103C7000380400203C080020680A00202DE9F041AB
:103C800010F538771BD0884600267D68BC68013D5A
:103C90000FD4A389012B05F1FF3506D9B4F90E30F5
:103CA0000133204601D0C04706436B1C04F1680471
:103CB000EFD13F68002FE8D13046BDE8F0813E46A5
:103CC0003046BDE8F08100BF2DE9F84310F53877A4
:103CD0001FD0884606464FF000097D68BC68013D4C
:103CE00011D4A389012B05F1FF3508D9B4F90E30A1
:103CF00001332146304602D0C04749EA00096B1C17
:103D000004F16804EDD13F68002FE6D14846BDE8D4
:103D1000F883B9464846BDE8F88300BFB2B110B594
:103D20000B491046144600F0BFFD08B9094810BD04
:103D30000849204600F0B8FD0028F7D02046064983
:103D400000F0B2FD0028F1D0002010BD01487047FE
:103D500048900108F48F0108747F010800487047FB
:103D600040080020014B186A704700BF400800203F
:103D700000487047640800200020704700487047E2
:103D800084080020024B0A4601461868FFF7C6BFA8
:103D900000000020004870478408002070B50C46E1
:103DA000B1F90E10002990B015461E4614DB01AA89
:103DB00001F094FE00280FDB029A02F47042A2F593
:103DC0000052B2FA82F252094FF480634FF400605D
:103DD00032602B6010B070BDA289002312F0800009
:103DE000336004D0402218462A6010B070BD4FF4F2
:103DF00080632B6010B070BD8A8992070B4606D590
:103E000001F1430201211A601A6159617047F0B54E
:103E100083B001AB6A460C460546FFF7BFFF009929
:103E200006462846FCF7FEFBB4F90C30D0B1019AE7
:103E3000124F0099EF6343F08003A381206020615B
:103E400061611AB93343A38103B0F0BD2846B4F9C8
:103E50000E1001F0CFFFB4F90C300028F2D043F07F
:103E60000103EFE79A05EFD404F1430243F00203A4
:103E70000121A381226022616161E5E70138000828
:103E800001F0FF01102A2BDB10F0070F08D010F80B
:103E9000013B013A8B422DD010F0070F42B3F6D10F
:103EA000F0B441EA012141EA014122F007047FF028
:103EB00000070023F0E80256083C85EA010586EA7F
:103EC000010685FA47F5A3FA87F586FA47F6A5FABB
:103ED00087F68EB9EED1F0BC01F0FF0102F00702C7
:103EE00032B110F8013B013A83EA010313B1F8D172
:103EF0000020704701387047002D06BF3546033853
:103F0000073815F0010F07D1013015F4807F02BF8B
:103F1000013015F4C03F0130F0BC0138704700BFDC
:103F2000C36C70B505460C464BB153F8240080B104
:103F3000026843F8242000230361C36070BD21227E
:103F4000042101F0BDFCE86403460028EDD1002007
:103F500070BD012101FA04F6721D2846920001F09D
:103F6000AFFC0028F3D044608660E4E731B1C36C55
:103F70004A6853F82200086043F82210704700BFD7
:103F8000F0B50C6983B00D46064601F1140E00270A
:103F9000DEF8000081B202FB0133010C180C02FBB9
:103FA00001019BB2013703EB0143BC424EF8043BD5
:103FB0004FEA1143ECDC3BB1AA68944207DA05EB07
:103FC0008402013453612C61284603B0F0BD696856
:103FD000019301313046FFF7A3FF2A69023205F150
:103FE0000C01074692000C30FCF7F6FDF26C696894
:103FF000019B52F82100286042F821503D46DEE73F
:104000002DE9F843244C089E1F46083384FB034ED9
:10401000DB17C3EB6E0EBEF1010F05460C46904652
:1040200035DD012300215B009E4501F10101FADC31
:104030002846FFF775FF0123B8F1090F46610361B8
:1040400021DD04F109094E46444416F8013B0146BE
:10405000303B0A222846FFF793FFA642F5D1A8F18C
:1040600008044C44474514DDA7EB0807274414F81F
:10407000013B0146303B0A222846FFF781FFA74259
:10408000F5D1BDE8F8830A344FF00908EAE70021CA
:10409000CEE7BDE8F88300BF398EE338020C120486
:1040A0000346B2B90304102013F07F4F04BF1B0274
:1040B000083013F0704F04BF1B01043013F0404F61
:1040C00004BF9B000230002B02DB5B0003D42020E6
:1040D00070470020E8E70130704700BF036813F025
:1040E0000702014607D0DA0721D4980721D49B089C
:1040F0000B600220704798B298B1104613F0FF0F82
:1041000004BF1B0A08301A0704BF1B0904309A07B2
:1041100004BF9B080230DA0707D45B0804D12020D3
:1041200070471B0C1020E9E701300B60704700203E
:1041300070475B080B600120704700BF10B50C464C
:104140000121FFF7EDFE01224461026110BD00BFB5
:104150002DE9F04F0C691569AC4283B08B461646C9
:1041600004DA2246B3462C460E461546DBF80830E4
:10417000DBF8041004EB05089845C8BF0131FFF7D0
:10418000CFFE00F1140909EB880AD145009005D251
:104190004B46002143F8041B9A45FBD806F1140C4A
:1041A0000CEB85030BF1140B9C450BEB840E4CD2EE
:1041B000CDF804A09A46DCF80050AFB2EFB1002170
:1041C0004D465E460C4656F8042B286893B281B2E1
:1041D00007FB0313120C010C234407FB021101EB34
:1041E00013419BB243EA0143B64545F8043B4FEA0D
:1041F0001144E8D82C60DCF800502D0C1DD0D9F803
:10420000003048461C46594600220E88240C05FB07
:10421000064422449BB243EA024340F8043B51F86F
:10422000043B04681B0CA6B205FB036303EB1243BB
:104230008E454FEA1342E8D803600CF1040CE245C6
:1042400009F10409B7D8DDF804A0B8F1000F0BDDBF
:104250005AF8043CAAF1040A1BB105E05AF8043DDF
:1042600013B9B8F10108F9D10098C0F8108003B073
:10427000BDE8F08F12F003032DE9F0411446074624
:104280002ED10D46A4101CD0BE6C96B3E3074FF0A0
:10429000000806D4641014D03068A8B10646E307BD
:1042A000F8D5324629463846FFF752FFB5B16A685D
:1042B000FB6C641053F82210296043F82250054625
:1042C000EAD12846BDE8F081324631463846FFF74C
:1042D0003FFF3060C0F800800646E0E70546D9E7BA
:1042E0005A1E0B4D002355F82220FFF749FE0546C4
:1042F000C8E701213846FFF713FE40F27121012281
:104300000023416102610646B8640360BEE700BF56
:10431000106601082DE9F84391460A698B684FEA57
:10432000691404EB020808F101059D420E46074698
:10433000496804DD5B009D4201F10101FADC384669
:10434000FFF7EEFD002C00F1140306DD03EB840201
:10435000002143F8041B9A42FBD1346906F1140191
:1043600019F01F0901EB840E1DD0C9F1200C0022A9
:104370000C6804FA09F4144343F8044B51F8042B75
:104380008E4522FA0CF2F3D81A600AB108F1020540
:10439000FB6C7268013D53F822100561316043F8EF
:1043A0002260BDE8F883043B51F8042B43F8042F46
:1043B0008E45F9D8ECE700BF30B40B6905460069BB
:1043C000C01A0FD19B001435143119442B4401E05D
:1043D0009D4207D253F8044D51F8042D9442F7D072
:1043E00002D3012030BC70474FF0FF30FAE700BF26
:1043F0002DE9F0410F690E4611697F1A002F904692
:1044000017D1890006F1140502F1140E6B187144DE
:1044100001E09D425CD253F8042D51F8044DA242B4
:10442000F7D05ED233462C4646467546984601275D
:1044300005E058DB06F1140508F114040027716843
:10444000FFF76EFDD8F810303669C76004EB830CB7
:10445000A64605EB860700F1140400235EF8041B52
:1044600055F8048B8AB213FA88F3090C9A1AC1EB37
:10447000184303EB224392B242EA0342F44544F864
:10448000042B4FEA2343E9D8AF4217D9A446AE46DE
:104490005EF8042B13FA82F3191401EB12419BB25C
:1044A00043EA014277454CF8042B4FEA2143EFD809
:1044B000ED432F4427F0030704373C44043C22B962
:1044C00054F8043D013E002BFAD00661BDE8F081AE
:1044D0000021FFF725FD0122002302614361BDE8B1
:1044E000F0817446ABE7334606F1140402F114057B
:1044F000164601279846A2E7134B10EE902A1A4061
:10450000A2F15073002B04DD0020194641EC100B82
:1045100070475B421B15132B0DDD143B1E2BDDBFBB
:10452000C3F11F03012202FA03F3012300211846FD
:1045300041EC100B70474FF40022002042FA03F1C7
:1045400041EC100B704700BF0000F07FF8B5046924
:1045500000F1140606EB840454F8045C2846FFF7C7
:104560009DFDC0F120030A280B60A4F1040117DCB3
:104570008E42C0F10B0738BF54F8081C25FA07FE1D
:1045800000F115004EF07F5334BFF940002105FAC9
:1045900000F043F4401340EA010243EC102BF8BD55
:1045A0008E421DD20B3854F8087C1CD0854045F053
:1045B0007F55C0F1200CA4F1080E45F4401527FAF0
:1045C0000CF1764545EA01031ED254F80C1C07FA9B
:1045D00000F021FA0CF10843024643EC102BF8BD21
:1045E0000B3808D1074645F07F5343F440133A4651
:1045F00043EC102BF8BD05FA00F040F07F5300208B
:1046000043F440130246E8E707FA00F00246E4E705
:104610002DE9F04357EC106B83B0884601213C46EE
:10462000C7F30A551746FFF77BFCC4F31304814612
:104630000DB144F4801401941EB302A840F8086D33
:10464000FFF74CFD002834D19DE80C00C9F8142078
:10465000002B0CBF01210221C9F81830C9F8101035
:10466000DDB909EB8103A0F23240C8F800001869F7
:10467000FFF714FDC0EB41103860484603B0BDE8B9
:10468000F08301A8FFF72AFD019BC9F8143001212E
:104690002030C9F81010002DE3D0A5F233450544B1
:1046A000C0F13500C8F800503860484603B0BDE896
:1046B000F0839DE80A00C0F1200203FA02F20A43E7
:1046C000C3400193C9F81420C2E700BF2DE9F043AD
:1046D00083B0884669468146FFF738FF404601A906
:1046E00055EC104BFFF732FF9DE80A00D9F8100097
:1046F000D8F81020CB1A801A03EB4013002B57EC8C
:10470000106B0DDD05EB03594D4632463B46204606
:10471000294602F011F941EC100B03B0BDE8F0831B
:10472000C3EB033307EB03510F46EEE71728D0B571
:1047300004460CDD0A490B4F0020002632463B465A
:1047400001F0D0FF013CF9D141EC100BD0BD064B7C
:1047500003EBC004D4E9040141EC100BD0BD00BF51
:104760000000F03F000024401066010870B4146996
:104770004E1E02F11403761103EB840101368B42C5
:1047800000EB86060CD2041F53F8045B44F8045F68
:104790009942F9D88B1A153B23F0030304331844CC
:1047A000864204D9002340F8043B8642FBD870BC03
:1047B000704700BF03694A11934210B400F114041A
:1047C00010DA04EB83039C4221D253F8040C043B1F
:1047D00018B115E053F8042D92B99C42FAD35DF854
:1047E000044B704710DD11F01F010DD054F822006A
:1047F00020FA01F303FA01F1884204EB8203E2D0CC
:1048000001205DF8044B704704EB8203DBE70020D6
:10481000E5E700BF10B50C46B1F90E1001F012FB30
:10482000002803DB236D0344236510BDA38923F413
:104830008053A38110BD00BF002070472DE9F041D7
:104840001646B1F90C201F46D3050C46054607D580
:1048500000220223B1F90E1001F0DEFAB4F90C20A7
:10486000B4F90E1022F48052A2813B46324628460B
:10487000BDE8F04101F00EB810B50C46B1F90E10CC
:1048800001F0CAFAA389421C0EBF23F4805343F4FB
:1048900080532065A38110BDB1F90E1001F040B81E
:1048A000A2EB0300704700BF02780B78012A28BFF3
:1048B0009A42F5D16DE9044540EA0104CDE9026769
:1048C0006FF0000C4FEA447212B380EA010414F056
:1048D000070F6AD100F0070420F0070004F0030579
:1048E00021F007014FEAC505F0E8042314F0040F96
:1048F000F1E804670CFA05F462EA040266EA0406C9
:104900000AD063EA0403624667EA0407664603E0E6
:10491000F0E80423F1E8046782FA4CF582EA060421
:10492000A4FA8CF46CBB83FA4CF583EA0705A5FA6C
:104930008CF595B950E9022351E9026782FA4CF5EA
:1049400082EA0604A4FA8CF483FA4CF583EA07059C
:10495000A5FA8CF52543DBD09CB92DBAB5FA85F4C0
:1049600024F0070427FA04F1DDE9026723FA04F3CF
:1049700003F0FF0001F0FF01FDE80445A0EB01009A
:10498000704724BAB4FA84F424F0070426FA04F138
:10499000DDE9026722FA04F202F0FF0001F0FF01F4
:1049A000FDE80445A0EB0100704714F0030F3CD173
:1049B00010F0030428D150F8082B51F8083B82FA74
:1049C0004CF582EA0305A5FA8CF55DB950F8042C84
:1049D00051F8043C82FA4CF582EA0305A5FA8CF5FD
:1049E000002DE8D02DBAB5FA85F424F0070423FA97
:1049F00004F122FA04F202F0FF0001F0FF01FDE8E9
:104A00000445A0EB010070474FEAC40420F0030006
:104A100050F8082B21F0030151F8083B0CFA04F47C
:104A200062EA040263EA0403C9E710F003041AD03F
:104A3000A1EB040120F00300E40750F8042B06D09A
:104A40000FD28B785FFAA2F4E41A06D12BB1CB789F
:104A50005FFAB2F4E41A00D11BB920465DF8104B9E
:104A6000704701F1040150F8042BCC0721F0030139
:104A700051F8043B48D824D222F07F4482FA4CF506
:104A800094EA1325A5FA8CF50AD165B951F8043BCF
:104A900084EA0204B4EB036F0ED150F8042BEBE769
:104AA0004FEA132355E035F07F454DD10878FDE8F6
:104AB0000445C0F1000070474FEA126203F0FF03A3
:104AC00047E002EA1C4482FA4CF594EA1345A5FA41
:104AD0008CF50AD165B951F8043B84EA0204B4EBC1
:104AE000034F0CD150F8042BEBE74FEA134330E0AF
:104AF00015EA1C4528D10B884FEA124229E04FEAFB
:104B0000124203EA1C4324E002F0FF0482FA4CF54F
:104B100094EA1365A5FA8CF50AD165B951F8043BFE
:104B200084EA0204B4EB032F09D150F8042BEBE71D
:104B30004FEA13630DE015F0FF0F05D10B684FEA44
:104B4000122223F07F4304E04FF00000FDE804450B
:104B5000704712BA1BBA82FA4CF482EA0304A4FA30
:104B60008CF5B5FA85F402FA04F203FA04F34FEA7D
:104B70001260FDE80445A0EB136070472DE9F84F83
:104B80004B6E9C0493462FD59368126853B30E4620
:104B9000074602F1080919E920045FEA9A0817D0CC
:104BA000043D002401E0A04510D0324655F8041F12
:104BB000384600F05FFF431C04F10104F3D10023E9
:104BC000CBF80830CBF80430BDE8F88FDBF80830BC
:104BD0002AF0030AA3EB0A03CBF8083009F108090D
:104BE000002BD8D10020EAE700F08CFF0023CBF89F
:104BF0000830CBF80430BDE8F88F00BF936803B1EC
:104C0000BCE710B4184653605DF8044B704700BF12
:104C10002DE9F04FADB01D460191914608930690E5
:104C200018B1836B002B00F0E080019CB4F90C00FC
:104C300081B28B0407D4636E40F4005123F4005317
:104C4000A181636689B20F0740F1B180019B1B69A6
:104C5000002B00F0AC8001F01A010A2900F0B580A9
:104C600000230DF1700B0B93119310930493CDF867
:104C70003CB0DA4699F800304C46FBB1252B02D106
:104C80001CE0252B03D014F8013F002BF9D1A4EB35
:104C900009059DB1109B119ACAF8009001332A446E
:104CA000072BCAF80450119210937ADD002A40F0C5
:104CB0008F84049B10922B44DA4604932378002BB4
:104CC00000F0B18300204FF000038DF8373004F17D
:104CD000010962780546064603464FF0FF3409F1A4
:104CE0000109A2F12001582900F20E83DFE811F03A
:104CF00037020C030C03EB020C030C030C030C0334
:104D00000C030C039E02F0020C03820077020C03DA
:104D1000CF01D401D401D401D401D401D401D401F0
:104D2000D401D4010C030C030C030C030C030C037F
:104D30000C030C030C030C033F020C030C030C03C9
:104D40000C030C030C030C030C030C030C034602B2
:104D50000C030C030C030C030C034A020C030C039E
:104D600052020C030C030C030C030C030C030C0386
:104D70000C030C030C03E201F6010C030C030C03FF
:104D80000703F6010C030C0391020C03F5028700E4
:104D9000B102C3020C03C8020C03BD010C030C03D7
:104DA000AA020AF1080A049B2B44049386E7019C9B
:104DB00006982146FDF7E8FB002840F04083A189D2
:104DC00001F01A010A297FF44BAF0199B1F90E30B5
:104DD000002BFFF645AF2B464A46069800F024FD0F
:104DE000049004982DB0BDE8F08FFEF7F1FD1CE7AC
:104DF0007642089243F0040399F800206FE7079683
:104E000013F0200240F05A8413F0100140F0F183B7
:104E100013F0400200F0ED8308980A460146043181
:104E20000688089100274FF000018DF83710002503
:104E3000611C00F0758123F08001039156EA07019F
:104E400040F07381002C40F05683002A40F0B2837A
:104E500013F00103059300F047840DF1B0083023EF
:104E600008F8413D059BA342B8BF234602930DB10C
:104E700001330293039B13F00203099302D0029BB8
:104E800002330293039B13F084030A9340F063827E
:104E9000079B029A9D1A002D40F35D82102D40F36E
:104EA0007784109B119AB94ED6461027A246194610
:104EB000069C07E001F1020C0EF1080E0146103DC0
:104EC000102D11DD481C1032072811928EE8C00009
:104ED0001090EFDD002A40F03182103D102D114678
:104EE0004FF0010CDE46EDDC54466146F2462A44A2
:104EF00007291192CAF80060CAF80450109100F313
:104F0000E6829DF837500AF1080A481C002D40F04F
:104F10002A82099B002B00F0448202320EA9022350
:104F20000728119210908AE80A0040F33682002A7E
:104F300040F08B830A9B802B4FF001001146DA462C
:104F400040F03382079B029D5E1B002E40F32D82B2
:104F5000102E8F4D40F32F84D4461027A246069C76
:104F600007E001F1020E0CF1080C0146103E102E74
:104F700011DD481C1032072811928CE8A000109017
:104F8000EFDD002A40F09682103E102E4FF0010E09
:104F90001146DC46EDDC5446E2463244BEF1070FD2
:104FA00011928AE86000CDF840E000F35B83059B36
:104FB000E41A002C0AF1080A0EF10100714600F310
:104FC000F9810599CAF800800A4407281192CAF8A5
:104FD0000410109040F35582002A40F0EE82039BAB
:104FE0001092580738D5079B02995C1A002C40F3A1
:104FF000BA82DA46102C40F3DA831099634E069F8A
:10500000DDF80480102506E0881C0AF1080A19461C
:10501000103C102C13DD4B1C1032072B1192CAF8D8
:105020000060CAF804501093EEDD002A40F00B82B5
:10503000103C102C4FF001001146DA46EBDC224404
:1050400007281192CAF80060CAF80440109040F393
:105050002382002A40F06783049B079A02998A42C0
:10506000ACBF9B185B1804931FE207969E0600F1E5
:1050700019830899DD060A4600F1B582580640F109
:10508000B2820E880431002701220891CBE643F05A
:10509000800399F8002022E6A2F13001002619F8D9
:1050A000012B06EB860601EB4606A2F13001092929
:1050B000F5D916E6089907960A688DF848204FF04A
:1050C00000000A468DF83700043201200290089251
:1050D00005900DF1480803930024CBE607960028BD
:1050E00040F082839E0600F1D182DD0600F18D82C0
:1050F000580640F18A82089DB5F900602A46F717E4
:105100000432304639460892002871F10002C0F29C
:10511000EE82611C9DF837504FF001027FF48BAE98
:1051200056EA070100F0E8810393012A00F0258286
:10513000022A40F0F5810B98D846330906F00F019A
:1051400043EA07733A091E461746435C08F8013DD7
:1051500056EA0703F1D1ABEB0803059382E699F811
:105160000020002D7FF4BBAD01202025B7E5079678
:10517000002840F0368343F01003B3E7079643F06E
:1051800010033DE6079643F010036FE73867010808
:10519000486701080796002840F02C83B0490B911E
:1051A0009F0600F197820898DE06014600F12882EA
:1051B0005D0640F125820431068808910027D80752
:1051C00040F1D98156EA070100F0D58130218DF8F0
:1051D000392043F002038DF83810022223E699F8B3
:1051E00000202A2A09F1010700F0F082A2F1300123
:1051F0000929B9464FF000043FF673AD19F8012BA9
:1052000004EB840401EB4404A2F130010929F5D92F
:1052100067E599F800206C2A03BF99F8012043F054
:10522000200309F1010943F0100358E508990E68BD
:105230000A46002E02F10402FFF6DAAD089299F850
:1052400000204CE50796002840F0DA8285490B9152
:10525000A6E70898834A07960B92066878223021C1
:1052600004308DF8392043F00203089000278DF8B0
:1052700038100222D7E543F0200399F800202EE5EC
:1052800008990796D1F800804FF000028DF837207A
:105290000E1DB8F1000F00F08182671C00F06082E3
:1052A0002246002140460293FEF7EAFD029B0028B9
:1052B00000F08482A0EB08020592089603939DF803
:1052C00037500024CEE543F0010399F8002006E5AD
:1052D00099F8002001202B2501E5002840F0878265
:1052E000990600F13182DA0621D45B061FD5089AAF
:1052F000136804320892BDF810201A80BAE443F013
:10530000400399F80020EAE40796002840F07582EF
:10531000002A00F0888001218DF848204FF000021B
:1053200002918DF8372005910DF14808D3E6089ACF
:10533000136804320892049A1A609BE40FAA019938
:105340002046FFF71BFC002874D11099119A01F137
:10535000010CDE46B3E51099119A481C9DF83750B0
:10536000002D3FF4D6AD01320DF13705012107289C
:1053700011921090CAF80050CAF8041040F3B68099
:10538000002A40F05581099B002B3FF4D3AD0EABB2
:10539000022208461C931D92DA4601460AF1080AC9
:1053A00001300A9B802B3FF4CDAD059BE41A002C05
:1053B0007FF707AE102C2C4D1DDDD6461026069F1C
:1053C000DDF804A006E0881C0EF1080E1946103C1A
:1053D000102C0FDD4B1C1032072B11928EE8600051
:1053E0001093F0DDA2B9103C102C4FF001001146D3
:1053F000DE46EFDCF246224407281192CAF800503C
:10540000CAF80440109031DC0AF1080A0130D8E5EE
:105410000FAA51463846FFF7B1FB58B91099119AB7
:10542000481CDE46D3E7119B23B1069801990FAAC9
:10543000FFF7A4FB019B9B895B067FF5D2AC4FF085
:10544000FF330493CDE40FAA41463846FFF796FB9D
:105450000028EFD11099119A481CDA46D8E500BF10
:10546000089001081C90010848670108002A40F0D4
:105470000081059A1D9201231192CDF8708010933E
:10548000DA460AF1080A039B590705D5079B0299DA
:105490005C1A002C3FF7AEAD049B0799029881423D
:1054A000ACBF5B181B1804937ABB00231093DA4639
:1054B000FFF7E0BB0FAA01992046FFF75FFB00282A
:1054C000B8D11099119A01F1010EDC464EE5002A7F
:1054D00040F01C819DF83710002900F01181012255
:1054E0000DF1370110461D921C91DA4601460AF172
:1054F000080A01300DE5039B012A00F09080022A82
:105500000BD103930026002715E60FAA01990698F0
:10551000FFF734FB0028C8D08CE703930026002750
:10552000594600E04146F20842EA4772F80806F0A0
:10553000070307461646303356EA070201F8013CD6
:1055400001F1FF38EED1039AD6077FF504AE302B78
:105550003FF401AE0239302308F8013CABEB010304
:10556000059388467EE4049B079A8A42ACBF9B1849
:105570005B18049399E7022255E4002F08BF0A2E16
:105580004CD3D846304639460A220023FAF76AFE41
:10559000303208F8012D3046394600230A22FAF746
:1055A00061FE06460F4656EA0703EBD1ABEB080354
:1055B000059357E40594D84654E40FAA0199069838
:1055C000FFF7DCFA00287FF435AF119ADA465AE784
:1055D0000FAA01990698FFF7D1FA00287FF42AAFA5
:1055E000DA46FFF7E0BB0431166808910122002774
:1055F00019E408980146043106680891002712E46E
:105600000E68043108910027D9E508990E680A460A
:10561000F717043208923046394675E5039B039329
:105620000DF1B0083036012308F8416D059319E4F7
:105630000FAA01990698FFF7A1FA00287FF4FAAEA5
:105640001099119A481CDA4663E40FAA019906984A
:10565000FFF794FA00287FF4EDAE1099119A481CD8
:10566000DA469EE6002A40F0868001201146DA469E
:105670009BE60FAA01990698FFF780FA00287FF4AD
:10568000D9AE1098119A0130DA469AE4089E07368E
:1056900026F00706D6E9000106F108020892064640
:1056A0000F4631E5089E073626F0070202F1080191
:1056B000D2E9006708910122FFF7B5BB089E0736C3
:1056C00026F0070202F10801D2E9006708910022E2
:1056D000FFF7A9BB089E073626F0070101F1080075
:1056E0000890D1E900676AE5D846FFF7BBBB2D25D6
:1056F000764267EB47078DF837500122FFF798BBDA
:10570000099BD3B911460120DA464EE60FAA01994A
:105710000698FFF733FA00287FF48CAE1099119A9F
:10572000481CDA461AE60FAA01990698FFF726FAEE
:1057300000287FF47FAE119AAEE60EAB02221C93D6
:105740001D920120DA4628E6089A04991368CD17BD
:105750000846043229460892C3E90001FFF78ABAD5
:10576000404608960393FBF7EBFB002405909DF859
:105770003750FFF777BB0FAA01990698FFF7FEF99C
:1057800000287FF457AE1099119A481CDA460CE6AF
:105790001099119A1C4E0131FFF7A9BB062C28BFA6
:1057A0000624059408960294DFF8608093E410982C
:1057B000154E013043E48646FFF7EFBB05949DF894
:1057C0003750089603930446FFF74CBB089999F8A5
:1057D00001200C68043144EAE474B9460891FFF7EB
:1057E0007EBA8DF83750C6E48DF837507AE48DF8DC
:1057F000375075E58DF83750D0E48DF8375087E590
:105800008DF8375022E500BF386701083090010855
:1058100010B4044C13460A46014620685DF8044B58
:10582000FFF7F6B900000020F0B50C46ADF26C4D64
:105830008989666EE589199621F00201666AADF8DC
:105840000E500025E769ADF80C10099606951AAEC2
:105850004FF4806569460096049602950595079772
:105860000646FFF7D5F9051E07DB30466946FDF70A
:105870009DFF002818BF4FF0FF35BDF80C305B06C8
:1058800003D5A38943F04003A38128460DF26C4D54
:10589000F0BD00BF70B50D46084C114606461A46CD
:1058A00028460023236001F090FB431C00D070BD0C
:1058B0002368002BFBD0336070BD00BFC0BE00204A
:1058C00010B502FB01F1FAF7ADFE0446D8B150F86D
:1058D000042C22F00302043A242A18D8132A14D9DB
:1058E00000231B2A0360436016D9242A8360C36007
:1058F00011BF00F110020361436100F1180200239F
:10590000136053609360204610BD0246F7E7002104
:10591000FBF760FA204610BD00F10802EFE700BF78
:1059200038B5074C002305460846236001F05BFBB1
:10593000431C00D038BD2368002BFBD02B6038BD42
:10594000C0BE002070B539B105460C4608B1836B66
:1059500083B3B4F90C3013B90026304670BD21462C
:105960002846FDF783FEE36A064633B1E16928461F
:1059700098470028B8BF4FF0FF36A3891B061CD4F8
:10598000216B41B104F14003994202D02846FEF751
:105990008FF800232363616C21B12846FEF788F855
:1059A00000236364FEF718F80023A381FEF716F8BE
:1059B000304670BDFEF70CF8CBE721692846FEF7AC
:1059C00077F8DDE7024B01461868FFF7BBBF00BF61
:1059D000000000202DE9F04782B080468946144639
:1059E000FEF7C0F9012836D04A4604F15C0301A94C
:1059F000404600F043FC421C064625D0A8B39DF863
:105A000004E000250DF1040A09E023685A1C226015
:105A100083F800E00135B54227D215F80AE0A36803
:105A2000013B002BA360F0DAA769BB427146224616
:105A3000404602DBBEF10A0FE7D100F0BFFB431C7A
:105A4000E8D102B0BDE8F087A38943F04003A38109
:105A500002B0BDE8F08709F1FF33FE2BC4D85FFA2E
:105A600089FE06468DF804E0CBE7484602B0BDE863
:105A7000F08700BFB2F90C3013F4005F0BD110B403
:105A8000546E43F4005344F40054546693815DF81B
:105A9000044BFFF79FBFFFF79DBF00BF0E4B70B5D4
:105AA0001D6806460C460DB1AB6B8BB1B4F90C30DA
:105AB0009A0406D4626E43F4005342F40052A38168
:105AC0006266224631462846BDE87040FFF782BF35
:105AD0002846FDF77DFFE9E70000002038B50B46BA
:105AE000074C0546114618460023236001F07EFA54
:105AF000431C00D038BD2368002BFBD02B6038BD81
:105B0000C0BE00209368002B73D02DE9F04F8B8925
